:100000000CC01FC01EC01DC01CC01BC01AC019C020
:1000100018C017C016C015C014C011241FBECFE5EC
:10002000D2E0DEBFCDBF11E0A0E6B0E0E0E6F5E053
:1000300003C0C89531960D92A630B107D1F7C6D14D
:100040008DC2DECF90BD89B986E880BD88E18AB9CE
:1000500008955D9BFECF8CB908955F9BFECF8CB158
:1000600008955D9BFECF8DE08CB95D9BFECF8AE04D
:100070008CB90895FC0104C05D9BFECF8CB931960C
:1000800080818823C9F70895F5DFEBDF08958FE0BD
:1000900088BB87BB8EE088BB88E782BB81BB82BB05
:1000A0008FEF85BB14BA1BBA8ABB1BBA0895FF92A7
:1000B0000F931F93F82E192F062FE9DF1BBB949A7D
:1000C000959A92B321E030E002C0220F331F0A95C7
:1000D000E2F7822F8095892382BBC09A9FEF94BB61
:1000E000F5BAC298C19A85E0382F3A95F1F7C198D0
:1000F000382F3A95F1F7C39814BA95BBC098C298B7
:1001000094988A95F1F713B382B3282B22BB949A63
:10011000C29AC39ABCDF812F1F910F91FF9008955F
:10012000CF92DF92EF92FF920F931F93CF93DF93C3
:100130006C017B018A01C0E0D0E00AC0CE018E0DC7
:100140009F1D66E0B4DFF601EC0FFD1F8083219652
:10015000C017D10798F3DF91CF911F910F91FF90B6
:10016000EF90DF90CF900895EF92FF920F931F933F
:10017000E82EF62E172F042F8ADF1BBB949A92B31A
:1001800021E030E002C0220F331F0A95E2F7822FF0
:100190008095892382BBC09A8FEF84BBF5BAC29841
:1001A000C19A85E0982F9A95F1F7C198982F9A9562
:1001B000F1F7C398E5BA982F9A95F1F79598982F8B
:1001C0009A95F1F7959A8A95F1F782B3822B82BBC3
:1001D00082B3282B22BBC29AC39A59DF1F910F9179
:1001E000FF90EF900895CF92DF92EF92FF920F93DE
:1001F0001F93CF93DF936C017B018A01C0E0D0E0B5
:100200000AC0F601EC0FFD1FBE016E0D7F1D80813F
:1002100046E0AADF2196C017D10798F3DF91CF916E
:100220001F910F91FF90EF90DF90CF900895FF9274
:100230000F931F93F82E8B018AEA65E575E543E07D
:1002400093DF85E56AEA7AE243E08EDF80EA65E5DE
:1002500075E543E089DF8F2DB80143E085DF84E950
:1002600092E00197F1F71F910F91FF9008950FDF32
:1002700008950DDF0895FEDE80E690E0FBDE83E664
:1002800090E0F8DEEADE81E890E0FEDE089586E8A0
:1002900090E0F0DE8AEA65E575E543E065DF85E537
:1002A0006AEA7AE243E060DF80E865E575E543E00D
:1002B0005BDF8AEA65E575E543E056DF85E56AEAD6
:1002C0007AE243E051DF80E165E575E543E04CDF2C
:1002D00080EE9BEA0197F1F781E890E0D5DE089582
:1002E000FF920F931F93CF93DF938B01F42E20E89F
:1002F000241720F082E990E0C7DE20C08AEA65E595
:1003000075E543E031DF85E56AEA7AE243E02CDF18
:1003100080EA65E575E543E027DFC0E0D0E0BE0197
:10032000600F711F9E01205D822F43E01DDF21962B
:10033000CF15A8F384E992E00197F1F7DF91CF910F
:100340001F910F91FF9008951F93CF93DF9387EA3A
:1003500090E090DEC0E0D0E08C2FBE0146E004DFEC
:1003600021968FE7CF3FD807B9F7C0E0D0E010E083
:10037000CE0166E09CDE90E09E013070821793070C
:1003800019F085E666DE1F5FCE019370892B11F4AC
:100390008EE25FDE21968FE7CF3FD80749F7C0E0B6
:1003A000D0E080E0BE0146E0DFDE21968FE7CF3F60
:1003B000D807B9F7112319F480EB90E002C088EB5D
:1003C00090E062DEDF91CF911F9108958F929F920E
:1003D000AF92BF92CF92DF92EF92FF920F931F9353
:1003E000CF93DF9354DE83E390E02CDE80EC90E04B
:1003F0004BDE90E9892E91E0992E84E9A82E82E0C7
:10040000B82E2BDE813709F453C0823750F4813681
:1004100009F450C08C3609F483C08C3409F09AC0BA
:100420008BC0873761F0883720F4823709F092C09B
:1004300019C0883739F18A3709F08CC052C00DDEF7
:10044000182F0FDE0ADEE82E0CDE07DE082F09DE8D
:10045000D02FC0E0FF24EC2AFD2A812FB70146E00F
:1004600083DECFCFFADD082FFCDDF7DDF82EF9DDD6
:10047000DF2CCC2410E0C601802B912B66E017DE28
:10048000E8DDBFCF86ED90E0FFDD85E56AEF70E047
:1004900046E06ADEC4010197F1F78AEF90E066E07A
:1004A00006DE182F86EE90E0E5DD812FD2DD50C00C
:1004B0004BDFA7CF00E010E0C80163E0F8DDC9DD45
:1004C000C8019170892B31F40115110519F08FEED7
:1004D00090E0D1DE0F5F1F4F84E00030180761F716
:1004E00090CF8AEA65E575E543E03EDE85E56AEA98
:1004F0007AE243E039DE80EA65E575E543E034DE23
:1005000000E010E0802F805DB80143E02DDE0F5F3A
:100510001F4F08321105B1F7C5010197F1F771CFEF
:1005200000E010E0C80166E0C2DD93DD0F5F1F4F01
:1005300000341105B9F70CC000E010E2C80166E014
:10054000B6DD87DD0F5F1F4F80E200341807B1F77B
:1005500088DD57CF85EF90E097DD53CFF894FFCF3C
:100560003A2000707265737320616E79206B657933
:10057000207768656E207265616479202E2E2E20AA
:1005800000444F4E450065726173696E672E2E2ED2
:1005900020004552524F523A2073697A6520746F99
:1005A0006F20626967210074657374696E6720004B
:1005B0002050415353454400204641494C45440096
:1005C00041544D383533352042555320494E54451A
:1005D0005246414345007465737420522F57206181
:1005E000636365737300726573756C743A2000649D
:1005F000616C736900556E6B6E6F776E20636F6D03
:060600006D616E64210033
:00000001FF
