:100000000CC013C012C011C010C00FC00EC00DC074
:100010000CC00BC00AC009C008C011241FBECFE528
:10002000D2E0DEBFCDBF02D03CC0EACFB89AB99AC9
:1000300018BA82E089BD82E48ABD81E083BF8CE783
:100040008EBD81E980BFFFCFB89AB99A18BA0895DA
:1000500090E896BD86BD0895813079F0813018F022
:100060008230F1F414C080E886BD95E096BD8FEF34
:1000700089BD82E48ABD93BF089580E886BD16BC21
:1000800089EF89BD82E48ABD82E083BF089580E85C
:1000900086BD16BC84E089BD82E48ABD81E083BF51
:0600A0000895F894FFCF63
:00000001FF
